:020000040000FA
:1000000080220020050500000D0500000F050000FE
:100010001105000013050000150500000000000098
:1000200000000000000000000000000017050000B4
:1000300019050000000000001B0500001D05000060
:100040001F0500001F050000ED07000071050000FE
:100050001F0500001F0500001F0500001F05000010
:100060001F0500001F0500001F0500001F05000000
:100070001F0500001F0500001F0500001F050000F0
:100080001F0500001F0500001F0500001F050000E0
:100090001F0500001F0500001F0500001F050000D0
:1000A0001F0500001F0500001F0500001F050000C0
:1000B0001F0500001F0500000000000000000000F8
:1000C0001F0500001F0500001F0500001F050000A0
:1000D0001F0500001F0500001F05000000000000B4
:1000E0000000000000000000000000000000000010
:1000F0000000000000000000000000000000000000
:1001000000000000000000000000000000000000EF
:1001100000000000000000000000000000000000DF
:10040000DFF80CD000F0A2F800480047BD0D000056
:1004100080220020401E00BF00BF00BF00BF00BF01
:1004200000BF00BF00BF00BF00BF00BF00BF00BFD4
:1004300000BF00BF00BF00BF00BF00BF00BF00BFC4
:1004400000BF00BF00BF00BF00BF00BF00BF00BFB4
:1004500000BF00BF00BF00BF00BF00BF00BF00BFA4
:1004600000BF00BF00BF00BF00BF00BF00BF00BF94
:1004700000BF00BF00BF00BF00BF00BF00BF00BF84
:1004800000BF00BF00BFC5D170470000401E00BFC5
:1004900000BF00BF00BF00BF00BF00BF00BF00BF64
:1004A00000BF00BF00BF00BF00BF00BF00BF00BF54
:1004B00000BF00BF00BF00BF00BF00BF00BF00BF44
:1004C00000BF00BF00BF00BF00BF00BF00BF00BF34
:1004D00000BF00BF00BF00BF00BF00BF00BF00BF24
:1004E00000BF00BF00BF00BF00BF00BF00BF00BF14
:1004F00000BF00BF00BF00BF00BF00BF00BFC5D12D
:10050000704700000648804706480047FEE7FEE7C0
:10051000FEE7FEE7FEE7FEE7FEE7FEE7FEE7FEE7B3
:10052000810500000104000040EA01039B0703D09D
:1005300009E008C9121F08C0042AFAD203E011F822
:10054000013B00F8013B521EF9D27047064C074DA3
:1005500006E0E06840F0010394E807009847103493
:10056000AC42F6D3FFF750FFA41B0000C41B0000F1
:100570000149024800F08EBB3400002000300040EA
:1005800070B58D480023021D0178101D0124062935
:1005900007D115782D0704D10578C5F30315032D70
:1005A00002D0062904D00FE0854E844D75670EE019
:1005B00015782D0708D10578C5F30315032D06D04E
:1005C000042D04D0052D02D0062909D010E04FF0EB
:1005D0008055D5F844527B4EC5F34235356002E074
:1005E00015782D0704D10578C5F30315032D02D026
:1005F000062906D011E0744D2E6826F080762E6014
:100600000EE015782D0708D10578C5F30315032DE5
:1006100006D0042D04D0052D02D006290AD011E001
:100620004FF08045C5F80C31C5F81031654D2D1FD0
:100630002B6002E015782D0704D10578C5F303156A
:10064000032D02D0062905D00CE05E4A0321643256
:1006500011600AE015782D0704D10578C5F303155C
:10066000032D02D006290DD06AE0584A05211160F9
:10067000564978310C60554908310B603F21121DF5
:10068000116002E0117809075AD10078C0F3031015
:10069000052855D14E4800684E4908604C48001D59
:1006A0000068091D08604A4808300068091D086094
:1006B00047480C300068091D086045481030006844
:1006C000091D0860424814300068091D0860404850
:1006D000183000683F49203108603D481C300068F0
:1006E000091D08603A4820300068091D0860384834
:1006F00024300068091D0860354828300068091D4D
:10070000086033482C300068091D086030483030DC
:1007100000683049403108602D4834300068091DB8
:1007200008602B4838300068091D086028483C30B4
:100730000068091D0860264840300068091D0860EF
:1007400021487438016841F470010160BFF34F8F94
:10075000BFF36F8F4FF01021D1F80002002803DBA8
:10076000D1F80402002822DA1B4A14601B480468EE
:10077000002CFCD01524C1F800420568002DFCD0E7
:10078000C1F8044201680029FCD013600168002907
:10079000FCD0BFF34F8F0C48F0380168104A01F4C9
:1007A000E06111430160BFF34F8F00BFFDE70E49C9
:1007B0000C48086070BD0000E00F00F00DF0ADBA0D
:1007C00000C007403C050040FCED00E01056004032
:1007D0000404001020C5004004E5014000E401408D
:1007E0000400FA050090D003100000200348007FA9
:1007F00008B101F02BB901F0A5B800005C000020A1
:10080000014800F011BC0000801B00001FB50E4B1A
:1008100001AC0ECB84E80E00D0F884110091D0F822
:1008200080010190084800231A4669460C3800F000
:10083000B3FB08B100F01AF903480C3800F09CFB38
:10084000642000F067FB1FBD8C1B000008B5012071
:100850000090024800F0FAFB08BD0000801B000079
:10086000C0E96021704700680321800000F1A040CA
:10087000C0F80017704701607047000000B5134BC7
:1008800089B00DF1040C0ECB8CE80E0001788DF8C8
:10089000041040788DF805000020ADF820000C48C9
:1008A00004900C494FF48070CDE90501079008A829
:1008B00000900623084A04A901A800F029F900289D
:1008C00001D000F0D3F809B000BD0000981B000073
:1008D0007C0000207C010020DD0800000178012957
:1008E00001D0022902D1406800F0C0B8704770B54D
:1008F00015460E46002403E0301900F0EFF8641CA2
:10090000AC42F9DB70BD70B515460E46002403E01D
:10091000305D00F04FF9641CAC42F9DB70BD00F0B3
:10092000D8B810B50170427004464360FFF7A6FFC7
:10093000204610BD0FB4054B10B503A9044A029818
:1009400000F017F810BC5DF814FB0000870C0000E5
:100950000C00002002E008C8121F08C1002AFAD1CA
:1009600070477047002001E001C1121F002AFBD12F
:1009700070472DE9F84F994692468846054600276C
:1009800006E025280AD051464A4690476D1C7F1C38
:1009900028780028F5D13846BDE8F88F002315F8EF
:1009A000011F18462E2915D115F8011F04232A29E5
:1009B0000DD06FF02F022978A1F13004092C09D84D
:1009C00000EB800002EB400008446D1CF3E758F890
:1009D000040B6D1C2A78002ADDD0632A07D0732A05
:1009E0000FD0104651464A4690477F1C2AE018F81F
:1009F000042B8DF8002000218DF801106E46012196
:100A000003E058F8046B4FF0FF315A074FF0000431
:100A100001D409E0641C84420BDA8C42FADB325DBB
:100A2000002AF7D105E0641C8C42FCDB305D002815
:100A3000F9D1274404E016F8010B51464A46904785
:100A4000641EF8D26D1CA3E7BFF34F8F0548016801
:100A5000054A01F4E06111430160BFF34F8F00BF0D
:100A6000FDE700000CED00E00400FA050EB50021E2
:100A70000091CDE901106A4644F20100FFF7E4FF5E
:100A80000EBD10B58268C368934203D000F0E8F849
:100A9000002010BD052010BD29B112B1531E134214
:100AA00003D0092070470E20704701608380002129
:100AB0008160C1600846704710B58268C3689A1AA1
:100AC00083889A4203D800F0D5F8002010BD042096
:100AD00010BD10B500F0A4FC002010BD10B50446F8
:100AE00009488168C2688088511A814206D1012173
:100AF000064800F019FB08B1052010BD2146BDE8ED
:100B000010400148FFF7BDBF140000200500002081
:100B100070B50446234888B01E460D00426035D0AB
:100B2000A888296882B22048FFF7B6FF00282ED196
:100B3000A889A96882B21C481030FFF7ADFF0028D1
:100B400025D1202219496846FFF7EEFCA0680690DF
:100B5000207900B101208DF814008DF81C606079B7
:100B600000B10E208DF81500E0780290A078039077
:100B700020780190607800900D49684600F08AFA6C
:100B8000002804D19DF81D0018B104E0072008B02A
:100B900070BD00F00FFB03480121401C00F0C4FAB7
:100BA000F5E700000400002014000020241B0000D2
:100BB0009D18000010B501460948FFF77DFF0400AD
:100BC0000CD100F025FC48B906490548FFF759FF4C
:100BD00020B90121034800F093FB0446204610BDD4
:100BE00024000020040000202DE9F0410446007894
:100BF000184F012606FA00F03860206800F053FC18
:100C00000021606800F046FC1348144D007FA06985
:100C1000C5F82405607D217D0843C5F86C05D4E93D
:100C20000001C5F80C05C5F81415207D01280FD169
:100C30000021A06800F02EFC207B86403E60E0682A
:100C400000F031FCD4E90201C5F80815C5F810051B
:100C5000BDE8F081080500505C0000200020004045
:100C6000826883881A4003689A5C0A708168491C0C
:100C700081607047C26883881A4003689954C168CC
:100C8000491CC160704710B50446C0B2FFF792FF1F
:100C9000204610BD2DE9FF470D4604464FF49271E2
:100CA00000F014FC01274FF002084FF4827900266F
:100CB00030B1C4F824614946204600F007FC70B307
:100CC0004946204600F002FC01004FF0FF3039D0C9
:100CD000C4F8046105F10C010DF104090EC989E89D
:100CE0000E0095F8231079B1297B012924D0D4F87E
:100CF0004C15C9B28DF80610297B02291FD0D4F8F3
:100D00004C15C9B28DF80710C4F86061C4F85C6175
:100D100095F8251091B395F8231079BB34E0FFE7DF
:100D2000A868C4F80803C5F80880A868C4F80403D4
:100D300027626761BDE8FF87D4F83C15D9E7D4F88E
:100D40003C15DEE7C4F84861297B69B14FF40071B6
:100D5000C4F80012891CA960C4F80803A868C4F884
:100D60000403A7602762E5E705F10C010DF1040912
:100D70000EC989E80E0095F8251029B90021C4F89C
:100D80000012AE60C4F80803D4F8C404C4F8C40464
:100D9000810702D58DF8007006E0400702D58DF876
:100DA000008001E08DF8006095F8250008B985F80D
:100DB0002460D5E9002168469047BBE72DE9F04F54
:100DC000ADF27C7D11210DF5EE60FFF754FD0DF5C0
:100DD000EE60FFF748FD19221E216846FFF740FD2F
:100DE0006846FFF713FD642000F094F84FF4614467
:100DF00023461A221B2162A8FFF793FD28220DF536
:100E0000CC6162A8FFF773FD62A8FFF788FD234657
:100E100006220821E5A8FFF784FD28220DF5CC6104
:100E2000E5A8FFF770FDE5A8FFF779FDFD208DF837
:100E30006C07642000F06EF82FA0FFF77BFD3048B0
:100E400020BF017880460029FAD02EA0FFF772FD5E
:100E5000642000F05FF801230DF26C7242216846B5
:100E6000FFF7F4FC29A0FFF765FD02230DF2747271
:100E700042216846FFF7C4FCBDF8740744BA3CB190
:100E80004FF0FF094FF4FA7ABE2C06D9BE2605E0D2
:100E90000DF27C7D0020BDE8F08F26468DF86C9722
:100EA00001230DF26C7242216846FFF7CFFCF3B2CA
:100EB0000DF5B46242216846FFF7A2FC8346504616
:100EC00000F028F800250DF5B46705E0795D10A065
:100ED000FFF730FD6D1CEDB2B542F7D3A01B040443
:100EE000240CD1D15FEA0B0001D0FFF7BFFD002138
:100EF00088F80010AFE7000048656C6C6F0D0A00C1
:100F00000000002031300A0D00000000370A000008
:100F10002563000031B540F2E73404E0401E009044
:100F20002046FFF777FA00980028F7D138BD490727
:100F3000090E002806DA00F00F0202F1E02282F822
:100F4000141D03E000F1E02282F8001400F01F02FB
:100F5000012191404009800000F1E020C0F880129A
:100F6000C0F8001170470121B1EB507F01D1012081
:100F700070470020704700000179064A01EB8101AB
:100F8000006802EBC1010622C0F80025022081F8AA
:100F9000220070473400002070B5064600790D46E7
:100FA0001F4C00EB800104EBC10494F8221009B13E
:100FB000082070BD15B91B4901EB00150020C4E9DC
:100FC0000023A06084F8250084F8240029463046D8
:100FD00000F0F0FA296840F20C60890001F1A041AC
:100FE000C1F800076968890001F1A041C1F8000754
:100FF000D5E900123068C0F80815C0F80C25A968BA
:10100000C0F82415206828B13068297B000B40B255
:10101000FFF78DFF012084F82200002070BD000042
:1010200034000020441B00003EB5074D2C69AD691B
:1010300000948DF80110019202958DF80230002283
:10104000694600F015F83EBD441B00003EB5002582
:101050000095069C8DF8011002958DF802300192E2
:101060000CB1202200E00022694600F001F83EBDEC
:1010700030B40379064C03EB830304EBC30400682C
:1010800013460A460146204630BC00F0EBBA000089
:10109000340000202DE9F0411E4C07460D46E07E4D
:1010A00010B10820BDE8F08107B91B4F787F207789
:1010B0003846FFF799FD6560386920602800174EB3
:1010C0004FF0000516D0397F207F48B1C6F8105187
:1010D000C6F82051C6F82451C6F84451104804E01F
:1010E000C6F81C51C6F844510E48C6F80403022045
:1010F000FFF71DFF207F08B1082000E00420C6F89C
:101100000005E5752576A5750120E076A576002019
:10111000C8E700005C000020601B000000200040C9
:1011200010030200800002002DE9F0411F4B1C7FDC
:101130003CB14FF40052B2EB104F02D01020BDE88A
:10114000F081D3F804C00022194D4FF404764FF417
:101150000177BCF1000F05D014B1C5F8086301E0B8
:10116000C5F8087393F817E0BEF1000F10D01A7E8F
:1011700052B1BCF1000F05D014B1C5F8046301E011
:10118000C5F804731120DAE718610122197604E02A
:10119000D9750025D8605D761D761CB1BDE8F0419B
:1011A00000F066B8BDE8F04100F014B85C00002023
:1011B0000020004010B5064C207F002806D1A07EFC
:1011C000002803D100F0EAF90120A07610BD00004C
:1011D0005C0000202DE9F05F234DA87E104301D173
:1011E00000F0DCF9214C686830B14FF40170C4F8AC
:1011F00004030020BDE8F09F4FF000094FF4A27AED
:10120000C4F844914FF4927BA8465946204600F01A
:1012100062F905464FF48471204600F05CF90746F8
:101220005146204600F057F9064647EA0601294391
:10123000EBD055EA060007D100F088F998F81710AE
:1012400098F819008142E0D888F817900DB1032072
:10125000D0E70EB10F20CDE798F81A10012009B1A0
:101260002060C6E76060C4E75C000020002000400A
:101270002DE9F05F204C00264FF48873C4F810610C
:101280004FF4A275C4F84461C4F83405C4F83815A5
:101290008AB1D4F8000240F02000C4F80002DFF860
:1012A0005C80D8F8040048B14FF40470C4F804031B
:1012B0000020BDE8F09F01202060F0E79A46A94693
:1012C0004FF4927B5146204600F010F905464946FE
:1012D000204600F00BF907465946204600F006F973
:1012E0003D430543EED088F8176008B10320E0E7DE
:1012F000002FDDD00F20DCE7002000405C00002044
:101300002DE9F047204D0246287F38B14FF40050B8
:10131000B0EB124F02D01020BDE8F08700F078F853
:1013200008B11120F8E7A9750023AA60AB82287FD5
:1013300028B3164C00264FF490709846C4F820311C
:101340004FF4AC73C4F85881C4F84425C4F8481568
:101350000121A160696881B98246994651462046BB
:1013600000F0C4F807464946204600F0BFF807439E
:10137000F4D000B10F2685F816803046CCE7BDE8E2
:10138000F04700F005B800005C000020002000409D
:101390002DE9F05F1C4F00254FF48E7A2E46C7F8DA
:1013A0001C514FF00108C7F8088000F053FA174CA1
:1013B000B815616879B123E05F465146484600F0B0
:1013C0008AF810B9A08AB842F7D1A08AB84204D0EE
:1013D00000F040FA01E08346B946A08AA17D884228
:1013E000EAD3A08A584501D10F2508E04F4651465F
:1013F000384600F070F80028F9D0C7F80C80A675C0
:101400002846BDE8F09F0000002000405C0000205E
:101410000248807D002800D0012070475C00002039
:1014200070B50C4C0C480025217FC0F8005562684F
:101430005AB109B1094901E008498C39C0F80813CB
:101440004FF0E0210420C1F8800100F055F8E57666
:10145000656070BD5C0000200020004010030200A9
:1014600030B541EA4201DDE9034541EA83018000EC
:1014700041EA042100F1A04041EA0541C0F800170B
:1014800030BD1CB5002100910B4601220191FFF7F0
:10149000E7FF1CBD1CB500220B46009211460192CD
:1014A000FFF7DEFF1CBD1CB5002100910B46012299
:1014B00001911146FFF7D4FF1CBD000001218140BE
:1014C000014801607047000008050050405800289E
:1014D00000D0012070474058002800D001207047FC
:1014E000D0F80403084000D001207047405800287D
:1014F00000D001207047000070B513484FF0FF3155
:10150000D0F80C25D0F81465D0F80855D0F810455F
:10151000C0F80C15C0F81415C0F80815C0F810155F
:101520001046FFF7AEFF3046FFF7ABFF601C02D05E
:101530002046FFF7A6FF681C04D02846BDE870408F
:10154000FFF79FBF70BD00000020004009480A4916
:101550000022C37DC1F8082143B1D1F81815437E9C
:10156000C268D154417E491C41767047D1F81805B4
:10157000704700005C000020002000401FB50122E1
:101580008DF8080004488DF800200191D0E9001280
:10159000684690471FBD00005C0000200448002101
:1015A000C0F82411C0F80811012101607047000043
:1015B000002000402DE9F0410C46096840F20C6023
:1015C000890001F1A041C1F800076168890001F1BB
:1015D000A041C1F800072068FFF770FF6068FFF7BF
:1015E0006DFF216840F20D60890001F1A041C1F852
:1015F00000076168890001F1A041C1F800070420DB
:10160000FEF744FFDFF8588000250126A8F1040703
:101610002079D8F80010C14011F0010F02D0002D40
:101620001BD00FE0207806FA00F038600420FEF7A7
:101630002DFF2068FFF742FF0420FEF727FF6D1CF7
:10164000092DE5DB207986403E600420FEF71EFF71
:101650006068BDE8F041FFF731BFBDE8F0810000F0
:10166000100500502DE9F84F0646002000901F4657
:1016700015460C464FF0080B4FF4827A5068FFF77E
:1016800072FC00287DD04FF0FF30C4F8080396F8B4
:10169000240028B1B068C4F804031120BDE8F88F15
:1016A000780703D4F80601D4012000E0002086F872
:1016B000240095E8070006F10C0383E80700C7F350
:1016C000001086F825006878C4F888054FF00009F6
:1016D000C4F80491C4F82491F8074FF0010801D030
:1016E000404600E04846C4F85005B80701D54046DA
:1016F00000E04846C4F840052A784FF4A47140F24F
:101700000220EAB3012A73D0022A45D0032A13D05B
:1017100007200090380704D42878032801D044F823
:101720000B80306870B3780702D54FF40070B0605A
:10173000B068C4F8040389E0A868FFF714FC00B39C
:101740004FF48070C4F80002A9786868C4F84405B2
:10175000C4F84815C4F85091C4F86091C4F8489191
:10176000C4F82080C4F808804FF4A8712046FFF721
:10177000ADFE0028F8D0C4F85091E878A96802E0DE
:101780001BE007E042E0C4F84415C4F848053048BF
:10179000B060BFE7102081E7AA786968C4F84415F3
:1017A000C4F84825EA78A968C4F83415C4F838257F
:1017B0004FF48451C4F80012EAE7AA786B68C4F8C1
:1017C0004435C4F84825BA0609D54FF48070C4F8EA
:1017D00000021F48B060C4F848918A4604E04FF404
:1017E0000071C4F80012B060C4F8208092E7FFE7EF
:1017F000A9786A68C4F83425C4F838154FF48051C4
:10180000C4F80012B0604FF0000BEDE74D464746BC
:101810004FF482794FF4927809E041462046FFF771
:1018200055FE20B1C4F8245127626761CA4651466B
:101830002046FFF74BFE0028EFD0D4F8C404C4F8CC
:10184000C40486F8245008B103200090009825E7CE
:1018500000020400064A0020C2F81C010548838AE1
:101860008168C95C838A5B1C8382C2F81C1570473F
:10187000002000405C0000201FB500218DF808000A
:1018800005488DF80010826801928175D0E9001238
:10189000684690471FBD00005C0000207CB50178C1
:1018A000264D012909D002292CD0002929D1294609
:1018B0002348FFF7E6F880B334E040680178204819
:1018C0001038FFF7F9F81E4C103C20B101218DF8BB
:1018D0000010019007E0A068E168081A012805D10E
:1018E00000208DF80000696868468847A068E168B4
:1018F000081AA188884204D810480121401CFFF72B
:1019000013FC7CBD02218DF80010C06801900B48CB
:101910000121401CFFF708FC0CE0FFE7012107480C
:10192000FFF7EEFC06488168C0688842E9D10320D1
:101930008DF800006968684688477CBD0400002077
:10194000240000202DE9FF413E4D4FF40071284650
:10195000FFF7C6FD01273C4C4FF40178002600B389
:101960004FF492712846FFF7B6FDD0B1C5F8246157
:10197000C5F80883A07E00B96F6002208DF80000D2
:10198000D5F88004C5F880040390E07D8DF8080048
:10199000E0680190E6752676D4E900126846904723
:1019A00024E004212846FFF79BFDF8B14FF4847131
:1019B0002846FFF790FDC8B1FFF7C8FDE07D617EC6
:1019C000884213D1227E3AB1607EE168E2752269D5
:1019D000E2602676667607E0A07E00B96F60C5F803
:1019E0000883E675607EE168FFF7C8FD4FF48E71ED
:1019F0002846FFF770FD58B1A18AA07D814202D22E
:101A0000FFF728FF04E0C5F81C6108B1FFF734FFB9
:101A10004FF4A2712846FFF75EFD00280FD0C5F8ED
:101A20004461A07E00B12F60E07D002807D0E675FC
:101A3000607EE16804B0BDE8F041FFF79FBDBDE8FE
:101A4000FF810000002000405C0000207FB5334C87
:101A50004FF492712046FFF749FD314D0026B0B199
:101A6000C4F8246102208DF80000D4F88004C4F882
:101A700080040390D4F83C058DF80800E8680190D4
:101A8000EE752E76D5E90012684690471FE04FF4B8
:101A900088712046FFF72AFDC8B1C4F81061D4F858
:101AA0003C05E97DC0B2814211D12A7E5AB1E96874
:101AB000D4F8003223F02003C4F80032EA752A6912
:101AC000EA602E7601E0EE75E968FFF757FD4FF406
:101AD000A2712046FFF70AFD50B1C4F84461E87DC9
:101AE00030B1EE75D4F83C05E968C0B2FFF746FDA9
:101AF0004FF490712046FFF7F9FC00280CD0C4F891
:101B00002061A87D002807D0D4F84C0504B0C0B2ED
:101B1000BDE87040FFF7B0BE7FBD00000020004070
:101B20005C00002006000000080000000A00000021
:101B30000500000000000000000000000000D601C9
:101B4000060000001D0000001900000000009801C0
:101B5000060000000100000000000000000000007E
:101B600006000000080000000A0000000500000058
:101B700000000000000000000000D6010600000088
:101B800000300040000100000000000000000000E4
:101B900000009801020000000000050A000000009B
:101BA00000F0EB00C41B0000000000201400000047
:101BB00054090000D81B0000140000206C22000013
:101BC00064090000010000000000000000000000A7
:081BD000000000000090D003AA
:0400000500000401F2
:00000001FF
