:1000000000000120351C00005D1C00005F1C00008A
:10001000611C0000631C0000651C00000000000063
:10002000000000000000000000000000671C00004D
:10003000691C0000000000006B1C00006D1C00002B
:100040006F1C00006F1C00007519000055130000A4
:100050006F1C00006F1C00006F1C00006F1C000074
:100060006F1C00006F1C00006F1C00006F1C000064
:100070006F1C00006F1C00006F1C00006F1C000054
:100080006F1C00006F1C00006F1C00006F1C000044
:100090006F1C00006F1C00006F1C00006F1C000034
:1000A0006F1C00006F1C00006F1C00006F1C000024
:1000B0006F1C00006F1C000000000000000000002A
:1000C0006F1C00006F1C00006F1C00006F1C000004
:1000D0006F1C00006F1C00006F1C0000000000007F
:1000E0000000000000000000000000000000000010
:1000F0000000000000000000000000000000000000
:1001000000000000000000000000000000000000EF
:1001100000000000000000000000000000000000DF
:1004000010B5054C237833B9044B13B10448AFF34E
:1004100000800123237010BD780000200000000040
:10042000D42B0000084B10B51BB108480849AFF3A6
:1004300000800848036803B910BD074B002BFBD0B0
:10044000BDE81040184700BF00000000D42B00009A
:100450007C0000207400002000000000154B002BE1
:1004600008BF134B9D46A3F5803A00218B460F46EB
:100470001348144A121A00F065F80F4B002B00D0F5
:1004800098470E4B002B00D0984700200021040015
:100490000D000D48002802D00C48AFF3008000F09A
:1004A0002BF82000290000F0D9F900F011F800BF66
:1004B0000000080000000120000000000000000013
:1004C000780000201C020020000000000000000056
:1004D00008B5074B044613B10021AFF30080054B6C
:1004E0001868836A03B19847204600F033F800BFCC
:1004F00000000000782A000070B50E4B0E4CE41A84
:10050000A41000251E46A54204D056F82530984771
:100510000135F8E702F0A2FA084C094BE41AA410DE
:1005200000251E46A54204D056F8253098470135CF
:10053000F8E770BD6C0000206C0000207000002007
:100540006C00002002440346934202D003F8011BD2
:10055000FAE77047FEE700BFF0B5984B1B78062B13
:100560001AD0974AD2F8883043F47003C2F8883022
:10057000BFF34F8FBFF36F8F4FF01023D3F80022DC
:10058000002AC0F2EA80D3F80432002BC0F2E580E2
:100590008C4B8D4A1A60F0BD8C4B1B681D07E0D157
:1005A0008B4B1B6803F0F003302B00F0D280884B9C
:1005B0001B6803F0F002302A6FD003F0E003402BF9
:1005C0006BD0834B1B6803F0F003302B00F0B1803D
:1005D0007F4B1B6803F0F002302A6FD003F0E0037A
:1005E000402B6BD07A4B1B6803F0F003302B00F0EC
:1005F0009280774B1B6803F0F003302B72D0744B62
:100600001B6803F0F003502BABD14FF08052714BBD
:10061000D2F80414C3F82015D2F80814C3F824152E
:10062000D2F80C14C3F82815D2F81014C3F82C15FE
:10063000D2F81414C3F83015D2F81814C3F83415CE
:10064000D2F81C14C3F84015D2F82014C3F844158E
:10065000D2F82414C3F84815D2F82814C3F84C155E
:10066000D2F82C14C3F85015D2F83014C3F854152E
:10067000D2F83414C3F86015D2F83814C3F86415EE
:10068000D2F83C14C3F86815D2F84014C3F86C15BE
:10069000D2F84424C3F8702563E74F4B474A1B68E0
:1006A00012784E49C3F34233062A0B607FF459AFE8
:1006B000464B1B681C077FF454AF82E73F4B1B7807
:1006C0004FF080420021062BC2F80C11C2F8101125
:1006D000C2F838157FF445AF3C4B1B6819077FF40F
:1006E00040AF7FE7354B3E4F1A783E4D3E483F4B7B
:1006F0004FF0050E012600243F21062AC7F800E02E
:100700002E60046019607FF42CAF304B1B681B0710
:100710007FF427AF73E7294B354A1B780321062B5B
:1007200011607FF41EAF294B1B681A077FF419AFC5
:100730005FE7304A2149D368097823F0807306299E
:10074000D3607FF40EAF214B1B6818077FF409AF0D
:100750003EE7294B294A1A6029E7294B0122C3F8B1
:100760000425D3F80024002AFBD04FF010231522D3
:100770002349C3F80022D1F80034002BFBD04FF0FE
:10078000102315221E49C3F80422D1F800241C4B63
:10079000002AFAD00022C3F80425D3F80024002A46
:1007A000FBD0BFF34F8F0649164BCA6802F4E062D4
:1007B0001343CB60BFF34F8F00BFFDE7E00F00F0A6
:1007C00000ED00E0640000200090D003E40F00F092
:1007D000E80F00F000C00040440200103C0500405B
:1007E00010560040885600401856004014560040ED
:1007F000A0050040F0ED00E074C007400DF0ADBA78
:1008000000E001400400FA050378012B01D0022B1F
:1008100002D1406800F0D8B8704700BF10B50C484E
:1008200084B001F025FA0B4B0FCB8DE80F000022AE
:1008300069461346084800F0B3FA08B100F0C4F85E
:10084000054800F045FC642000F036FA04B010BD05
:10085000A02A00007C2A0000982A00002DE9F04F11
:100860004C4B4D4A4D4DB7B00DF10C0B069293E831
:1008700007000DF10A0700238BE8070001264FF45B
:100880008074ADF80A300097584606A9444A079686
:1008900006230895099400F06FF908B100F094F868
:1008A0004048DFF820A101F0E3F9FFF7B7FFFD238F
:1008B0003D488DF80A3001F0DBF9642000F0FCF9C6
:1008C00020BF9AF80030002BFAD0384801F0D0F958
:1008D000012300933648374A42210B2300F008FCDD
:1008E000642000F0E9F9012300933A4642213048A0
:1008F00000F0FEFB0146304801F0BAF92F4801F044
:10090000B7F902232A4842215A4600F097FC9DF885
:100910000C609DF80D3053EA062636D04FF0FF09E3
:10092000BE2E4FF0010300934FF042013A46354688
:100930001F488DF80A9028BFBE2500F0D9FBEBB206
:10094000422106AA1A4800F079FC80464FF4FA705A
:1009500000F0B2F9002436AB23440134184813F8F0
:10096000C01CE4B201F084F9AC42F4D3761BB6B2F9
:10097000002ED5D1B8F1000F03D100238AF8003042
:10098000B1E7404600F020F8F7E7304637B0BDE861
:10099000F08F00BF8C2A00009400002098000020F7
:1009A00009080000A42A0000BC2A0000C02A000098
:1009B000982A0000E42A0000C82A0000DC2A00006F
:1009C000E02A00006800002000B585B000230390F5
:1009D000194644F2010001AAADF80430029300F078
:1009E00003F805B05DF804FBBFF34F8F0549064BD4
:1009F000CA6802F4E0621343CB60BFF34F8F00BFBD
:100A0000FDE700BF00ED00E00400FA0559B10AB9A6
:100A100009207047531E1A40FAD18260016083801A
:100A2000C260104670470E20704700BF10B4846843
:100A3000C26803468088121B904203D204205DF8EE
:100A4000044B7047DA681C6802400020A154DA6841
:100A50000132DA605DF8044B704700BF03468068DE
:100A6000DA6890420DD010B49A6898881C680240E9
:100A70000020A25C0A709A6801329A605DF8044B0B
:100A800070470520704700BF70B5161E07DD0C4685
:100A90008D1914F8010B00F0F1F8AC42F9D1304691
:100AA00070BD00BF10B50C46204600F0CBF80528FD
:100AB000FAD0012010BD00BF30B50478012C83B0FE
:100AC00016D0022C30D00CB103B030BD25482649D9
:100AD000FFF7C4FF18B3234B9A68DB689A42F3D13F
:100AE00002A8032300F8083D204B1B689847EBE75A
:100AF00043681F4D19782846FFF798FF08BBAA687E
:100B0000EB689B1A012B24D0A968EB68AA885B1AB2
:100B10009A42D9D30121174800F024FED4E70121DD
:100B2000114800F083FDD6E7C36812480193012104
:100B30008DF8004000F016FE0C4B68461B68984785
:100B4000C2E70A4B01908DF800401B686846984741
:100B5000DAE702AB054A03F8080D12681846904719
:100B6000D2E700BFA4010020980100209C010020D2
:100B7000B4010020A00100202DE9F0472B4C88B0E3
:100B800022600C4600294AD0054609682848A288F8
:100B90001F46FFF73BFF10B108B0BDE8F0872548BE
:100BA000A168A289FFF732FF0028F5D1224E95F8FF
:100BB00004A095F80590D5F8088095F803C095F83D
:100BC00002E00FCE6C460FC496E80F001AF1000643
:100BD00018BF0126B9F1000F84E80F0014BF0E24DE
:100BE00000242A786B7815498DF81C7068468DF8BA
:100BF00014608DF81540CDF81880CDF808C0CDF8F8
:100C00000CE00192009300F049FC0028C4D19DF84B
:100C10001D3043B101210A4800F0A4FDBCE70720C4
:100C200008B0BDE8F08700F08BFEF3E79C010020E0
:100C3000B4010020A4010020F02A0000B90A00003D
:100C4000A001002010B50B4A9168D36892885B1A06
:100C50009A42044605D021460648BDE81040FFF7F9
:100C6000FDBE0548012100F07DFD0028F3D00520E0
:100C700010BD00BFB4010020A001002010B5014646
:100C80000B48FFF7D3FE044608B1204610BD00F024
:100C900061FD0028F9D106480649FFF7DFFE00286C
:100CA000F3D104480121BDE8104000F0BFBC00BFF3
:100CB000A40100209801002082B00190019B002B2C
:100CC00043D0019B013B019340F2E730013800BF64
:100CD00000BF00BF00BF00BF00BF00BF00BF00BF1C
:100CE00000BF00BF00BF00BF00BF00BF00BF00BF0C
:100CF00000BF00BF00BF00BF00BF00BF00BF00BFFC
:100D000000BF00BF00BF00BF00BF00BF00BF00BFEB
:100D100000BF00BF00BF00BF00BF00BF00BF00BFDB
:100D200000BF00BF00BF00BF00BF00BF00BF00BFCB
:100D300000BF00BF00BF00BF00BF00BF00BF00BFBB
:100D400000BFC3D1019B002BBBD102B0704700BFD5
:100D5000002810B418DB00F1604303F5614349013A
:100D6000C9B283F80013C3B24009800000F16040AB
:100D700000F5614003F01F0201239340C0F8803169
:100D800003605DF8044B7047C3B2044A03F00F04DC
:100D900049012244C9B21176E6E700BFFCEC00E04D
:100DA0002DE9F0410579064EAF008646781906EB2D
:100DB000C00090F8220028B10820BDE8F08100BFF3
:100DC000C4010020002900F07D817819C00006EBE5
:100DD000000C32500024CCF80430CCF808408CF8D9
:100DE00025408CF824400A684FF0A04302F5E072D9
:100DF00040F20C6043F822004A6802F5E0724FF0BE
:100E0000010C43F822000A680CFA02F2C3F8082524
:100E10004A680CFA02F2C3F808250A6802F5E07283
:100E200040F20D6843F822804A6802F5E07204201F
:100E300043F82280013800BF00BF00BF00BF00BFE1
:100E400000BF00BF00BF00BF00BF00BF00BF00BFAA
:100E500000BF00BF00BF00BF00BF00BF00BF00BF9A
:100E600000BF00BF00BF00BF00BF00BF00BF00BF8A
:100E700000BF00BF00BF00BF00BF00BF00BF00BF7A
:100E800000BF00BF00BF00BF00BF00BF00BF00BF6A
:100E900000BF00BF00BF00BF00BF00BF00BF00BF5A
:100EA00000BF00BF00BF00BF00BFC3D1D3F81025F3
:100EB000D1F8048022FA08F2D2074FF0040000F1C2
:100EC000FE800A680CFA02F2C3F80C25013800BF54
:100ED00000BF00BF00BF00BF00BF00BF00BF00BF1A
:100EE00000BF00BF00BF00BF00BF00BF00BF00BF0A
:100EF00000BF00BF00BF00BF00BF00BF00BF00BFFA
:100F000000BF00BF00BF00BF00BF00BF00BF00BFE9
:100F100000BF00BF00BF00BF00BF00BF00BF00BFD9
:100F200000BF00BF00BF00BF00BF00BF00BF00BFC9
:100F300000BF00BF00BF00BF00BF00BF00BF00BFB9
:100F400000BFC3D10A680CFA02F2C3F808250420D6
:100F5000013800BF00BF00BF00BF00BF00BF00BF1F
:100F600000BF00BF00BF00BF00BF00BF00BF00BF89
:100F700000BF00BF00BF00BF00BF00BF00BF00BF79
:100F800000BF00BF00BF00BF00BF00BF00BF00BF69
:100F900000BF00BF00BF00BF00BF00BF00BF00BF59
:100FA00000BF00BF00BF00BF00BF00BF00BF00BF49
:100FB00000BF00BF00BF00BF00BF00BF00BF00BF39
:100FC00000BF00BF00BFC3D10134092C7FF46EAF56
:100FD000D1F8048001234FF0A04203FA08F0C2F8D0
:100FE0000C050420013800BF00BF00BF00BF00BFD8
:100FF00000BF00BF00BF00BF00BF00BF00BF00BFF9
:1010000000BF00BF00BF00BF00BF00BF00BF00BFE8
:1010100000BF00BF00BF00BF00BF00BF00BF00BFD8
:1010200000BF00BF00BF00BF00BF00BF00BF00BFC8
:1010300000BF00BF00BF00BF00BF00BF00BF00BFB8
:1010400000BF00BF00BF00BF00BF00BF00BF00BFA8
:1010500000BF00BF00BF00BF00BFC3D148688340CE
:10106000C2F808350B684FF0A04003F5E07340F27A
:101070000C6440F823404B6803F5E0737A1940F89C
:10108000234091E81100DEF8003056F83220C3F812
:101090000805C3F80C458868C3F8240532B1DEF8AA
:1010A0000000097B40F30730FFF752FE3D4406EB9A
:1010B000C505012385F822300020BDE8F081002C11
:1010C00088D1CFE7014901EB05117EE6102B000026
:1010D0000379064A016803EB830302EBC303022092
:1010E000062283F82200C1F800257047C4010020C1
:1010F0002DE9F04F85B002F0604C9DF8385006792C
:10110000002D14464FF0000214BF4FF0200E9646FB
:10111000BCF1005F056801920292039203D0102097
:1011200005B0BDE8F08F434A4FEA860A0AEB060C89
:1011300002EBCC0C0CF120094FF0FF32C5F808236C
:1011400099F8042002F0FF083AB1DCF80830C5F83D
:101150000433112005B0BDE8F08F8DF805108DF82F
:101160000630029404AA0F4612E907004FF0010B63
:1011700089F804B089F805800CF10C09C5F8887568
:1011800089E80700C5F80481C5F82481C5F85085B1
:10119000C5F84085C5F84445C5F84835BEF1000F8F
:1011A00019D14FF4007240F20223C5F800224FF427
:1011B0008271CCF808300AEB06030122DB001D48DF
:1011C0002A62AA60C0581B4C88B1234400209B6847
:1011D000C5F80433A4E74FF48072174BC5F800221A
:1011E0004FF4A471CCF80830C5F84881E3E7104605
:1011F000294402E0D5F82421A2B90B68002BF9D0CC
:101200000C4A0AEB060302EBC303D5F8C424C5F865
:10121000C424002A4FF0000283F824200CBF10469B
:1012200003207DE7C5F824314FF48271286268619C
:10123000DEE700BFC4010020000204002DE9F04FEA
:1012400002F0604485B01646B4F1005F4FF0000232
:101250000779056801920292039203D0102005B02D
:10126000BDE8F08F4FEA870B394A0BEB070C4FEACA
:10127000CC0C02EB0C0808F120094FF0FF32C5F846
:10128000082399F8042002F0FF043AB1D8F8083096
:10129000C5F80433112005B0BDE8F08F4FF001020E
:1012A0008DF806308DF804208DF80510029604AAFA
:1012B0008E4612E907004FF0010A89F804A0C5F82C
:1012C00088E508F10C0EC5F804418EE80700C5F862
:1012D00024414FF48051C5F8504540F20222C5F830
:1012E0004045C5F83465C5F838350123C5F8001206
:1012F00089F80540C8F808202B622B60144B53F87E
:101300000C302BB1D8F80830C5F804332046A6E7D6
:10131000012202E0D5F82411A1B9D5F80431002B3F
:10132000F8D00B4BD5F8C424C5F8C4245F4403EBB4
:10133000C707002A4FF0000287F824200CBF104690
:1013400003208CE7C5F824312A626A61E5E700BF13
:10135000C401002030B54F4BD3F8242185B09AB199
:101360000022C3F82421D3F804216AB94A4A022191
:101370009068C3F8080391609268C3F804230122BF
:101380001A625A6105B030BD424C434BD4F8042177
:1013900022B303F10C0207CA0025C4F8045193F8E4
:1013A00023500DF1100E0EE907006DB31A7B012AD0
:1013B0006BD0D4F84C158DF80610022A61D0354A4E
:1013C000D2F84C25D2B233498DF807200022C1F85B
:1013D0006021C1F85C2193F825501CE0C4F8482135
:1013E0001A7BA2BB03F10C0207CA93F825500DF13A
:1013F000100E0EE90700BDB94FF0FF32C4F80052DD
:101400009D60C4F808230FE0C4F86051C4F85C5133
:1014100093F8255045B91F4A00214FF0FF30C2F81C
:1014200000129960C2F808031A49D1F8C424C1F81F
:10143000C42491071ED501228DF800200DB983F830
:1014400024501A6859686846904705B030BD4FF47B
:10145000007040F202214FF0FF32C4F800029960A0
:10146000C4F808239B68C4F804330123A3602362F3
:1014700005B030BD12F0040218BF02228DF8002022
:10148000DCE7D4F83C25D2B29DE7D4F83C258DF8B2
:10149000062094E700300040C4010020F8B5594C04
:1014A000E37E0BB10820F8BD574A002808BF10465C
:1014B00001250768467F26774FF0A042BD40C2F85D
:1014C0000855056805F5E0754FF0030E42F825E074
:1014D000456805F5E07542F82530002E33D14B4BB9
:1014E0008569C3F82455077D457D3D43C3F86C5598
:1014F00090E8A000C3F80C55C3F81475077D012FC0
:1015000064D003696160236071B1017F002E48D10E
:101510003F4E404D3D4A4048002333602B60C2F8A7
:1015200004030220FFF714FC237F002B49D0374B24
:101530000822C3F8002500200123E0752076A0755D
:10154000A076E376F8BD314D8769C5F8247590F82B
:1015500014C0477D4CEA0707C5F86C7590E8801009
:10156000C5F80C75C5F814C5077D012FC9D186686B
:1015700006F5E07642F82630C3689F40C2F8087549
:10158000C36803F5E07342F823E08368C268C5F8D6
:101590000825C5F810350369616023600029C3D0B0
:1015A000017FDFF884E01D4F1D4E1A4D174A1D487C
:1015B0000023CEF800303B6033602B60C2F8040398
:1015C000AFE7124B0422C3F80025B4E7856805F5A0
:1015D000E07542F82560C568AF40C2F80875C56877
:1015E00005F5E07542F825E0C5688268C3F808553E
:1015F000C3F81025036961602360002994D0017F3E
:1016000086E700BFEC010020202B000000200040F6
:101610001C210040442100408000020020210040A5
:101620002421004010030200102100402DE9F001A8
:10163000414A137F43B1030C1B04B3F1005F0AD08E
:101640001020BDE8F0017047937D002B2AD01120B7
:10165000BDE8F0017047957D002DF8D1374E384C2C
:10166000384B394F91754FF0010C95829060256091
:101670001D60C6F84405C6F84815C7F800C0516893
:1016800029BB184600E023BB21680368003318BF5C
:1016900001230029F7D0002B0CBF00200F200023CE
:1016A0009375CEE7294C284D9382012623602E6046
:1016B0002360958A938A9175A9B2204E5768415C40
:1016C000906001339BB29382C6F81C151FB10020B5
:1016D000B7E70F20E3E721461546907D938A164C25
:1016E0009BB2984205D818E0938A9BB2B3F5807FED
:1016F00002D00B68002BF7D0938A9BB2B3F5807FA2
:10170000ECD00F60AC8AAB8AA868A4B20133005D4C
:101710009BB2AB82C6F81C05DFE7A38A9BB2B3F588
:10172000807FD6D009490B68002BFCD0084B0121E3
:1017300019600020B3E700BFEC010020002000404A
:101740002021004058210040082000401C2100407A
:101750000C200040024B987D003018BF01207047DC
:10176000EC010020F0B56F4B1A7F32B1040C240459
:10177000B4F1005F4ED01020F0BD5C6824B16A4D1A
:101780004FF40176C5F80863DD7D664EB5B9B27ECB
:10179000F175F060757635763AB96448644D624902
:1017A0007468026001202A600860002C55D05E4BEE
:1017B0004FF40172C3F804230020F0BD1D7E594E82
:1017C0005DB1002C00F08C80574B002A3FD04FF4C5
:1017D0000472C3F804231120F0BD30613176002A71
:1017E000E3D0514A534E544C35602560C2F834055D
:1017F000C2F83815D2F8001241F02001C2F80012E8
:101800005A68002A6ED0484B4FF40472C3F8042380
:101810000020F0BD5C6824B1434D4FF40476C5F858
:101820000863DD7D3F4E002DC8D13F4ADFF804E15B
:10183000414F75760124F175F0603576CEF8005091
:101840003D60C2F83405C2F838151460D8E74FF48B
:101850000172C3F804231120F0BD374A334E344DD2
:10186000304FDFF8C4E014601446316828682268FD
:10187000003118BF0121003218BF012230B9E2B98E
:101880000029F2D00022DA750320F0BD0029F9D139
:10189000AAB9D97DB9B92960DEF818255A7ED97D53
:1018A00020489142E1D8837E0022C275002B33D0BC
:1018B0001D4B012119601046F0BD0029E2D1002224
:1018C000DA750F20F0BD2A60787EDEF818157A7E72
:1018D00002F1010CFA6811545FFA8CF27A76DDE7B6
:1018E0001120F0BD134E144D104C02E061B9002AD6
:1018F000C8D1306829682268003118BF0121003240
:1019000018BF01220028F1D00020D875002ABBD1D1
:10191000814218BF0F20F0BD084A0121116018460E
:10192000F0BD00BFEC010020002000402421004059
:1019300008210040102100404421004004200040C4
:10194000084B1A7F62B99A7E52B90749074810B40A
:10195000074C0A6001212260997601605DF8044B12
:10196000704700BFEC01002024210040002000400F
:1019700008210040F0B59C4C237F85B0002B74D12A
:101980009A4AD2F80413890548D4984BD3F8042313
:10199000520710D5964A116869B1E17D9248002935
:1019A00040F008811160D3F81835627EE17D8E4BDE
:1019B000914200F0E3808F4B1A68A2B1A28AA17D08
:1019C000894892B291424FF000021A6040F2928030
:1019D000828A838A8568854992B20133AA5C9BB268
:1019E0008382C1F81C25844B1A68AAB1A27E00210B
:1019F0001960002A79D1E27D7B4B6AB15A7ED968A1
:101A00008DF808200020012201918DF80020D87562
:101A100093E806006846904705B0F0BD774908682E
:101A20000028B2D0A07E0B604FF40173C2F80833D7
:101A300028B903F1804303F5F05301221A606B4A81
:101A400002238DF80030D2F88034C2F88034E07D73
:101A5000E26803938DF80800002301922168626810
:101A6000E375684623769047A5E7644A1368002B20
:101A70004FD1634A116839B15C481360D0F83C25F6
:101A8000E17DD2B2914260D05B4B1A68A2B1E17D98
:101A9000554800221A6079B1A3F5A273C168D3F842
:101AA0003C358DF80830012301918DF80030C27566
:101AB00090E80A0068469847524B1A68002AABD053
:101AC000A17D494800221A600029A5D047498368B2
:101AD000D1F84C158DF808100193827590E80A0032
:101AE0008DF800206846984796E7A3F5A273012277
:101AF0001A6080E700293FF476AF83688DF80810FC
:101B00000193827590E80A008DF800206846984796
:101B100069E700233549136002208DF80000D1F8F1
:101B20008024C1F880240392D1F83C15E2688DF836
:101B30000810019221686268E37568462376904731
:101B40002D4B1A68002AB7D0A1E7277E002F3DD081
:101B5000D0F80022E77522F02007E6682569C0F872
:101B6000007201208DF808108DF80000237621689E
:101B700001966846E5606368984785E71A7E002A03
:101B800044D19B7E13B9204B01221A60174AE068AA
:101B900063684FF40171C2F80813627E8DF8082063
:101BA000012201908DF80020216800226846E2752C
:101BB000984700E700211160427ED3F81855437E14
:101BC000C1680133DBB28D544376EEE6E2688DF8EE
:101BD000081001238DF80030019294E80A00E7759F
:101BE0006846984750E700BFEC0100200020004005
:101BF000082100401C2100404421004024210040D5
:101C0000102100402021004004200040D968587E67
:101C1000019101218DF808008DF800101E69DA7518
:101C200093E8220000226846DE601A765A76A847BA
:101C3000C1E600BF0649074A074B9B1A03DD043B78
:101C4000C858D050FBDCFEF787FCFEF707FC00000D
:101C5000E02B00000000002078000020FEE7FEE7F7
:101C6000FEE7FEE7FEE7FEE7FEE7FEE7FEE7FEE74C
:101C70000FB40A4B13B51C6824B1A36913B92046ED
:101C800000F04EF805AB2046A168049A019300F0DD
:101C90004DF902B0BDE8104004B07047600000206C
:101CA000014900F0A7B800BFDD270000002310B5F0
:101CB000044603604360836081814366C28103619F
:101CC0004361836119465C300822FEF73BFC054BFB
:101CD0006362054BA362054BE362054B24622363F9
:101CE00010BD00BF89240000AB240000E3240000E5
:101CF0000725000070B568234D1E5D430E4605F1B3
:101D0000740100F095F8044640B1002180E84200DB
:101D10000C30A06005F16802FEF714FC204670BD8F
:101D2000836910B5044633BB8364C3640365124BF7
:101D3000124A1B688262984204BF0123836100F04B
:101D40001FF86060204600F01BF8A060204600F0FD
:101D500017F80421E06000226068FFF7A7FFA06881
:101D600009210122FFF7A2FFE06812210222FFF7FA
:101D70009DFF0123A36110BD782A0000A11C000073
:101D8000F8B51B4B1E68B369074613B93046FFF719
:101D9000C7FF4836B4687368013B04D4B4F90C50EB
:101DA00075B16834F8E733682BB938460421FFF77A
:101DB000A1FF306008B13668ECE70C233B60F8BD4A
:101DC0004FF6FF73E3810123A38165662560A5605B
:101DD000656025616561A56104F15C002946082202
:101DE000FEF7B0FB6563A563A564E5642046F8BD16
:101DF000782A00002DE9F8438046894600F148041E
:101E0000002694B1A5686768013F0CD4AB89012B0B
:101E100007D9B5F90E30013303D040462946C847EB
:101E200006436835F0E72468EBE73046BDE8F88301
:101E300070B5CC1C24F0030408340C2C38BF0C24DF
:101E4000002C064603DA0C233360002070BD8C4260
:101E5000F9D3204A136810461946A1B10A68121B2B
:101E60000ED40B2A03D90A608B188C501FE08B42CA
:101E70000DBF5A684A685A60026018BF0B4616E0E8
:101E80000B464968E9E7144D2B681BB9304600F052
:101E9000EBFA28603046214600F0E6FA421C034681
:101EA000D1D0C51C25F0030585420AD11C6003F181
:101EB0000B001A1D20F00700821A0AD051429950D7
:101EC00070BD3046E91A00F0CFFA0130BBD02B4686
:101ED000ECE770BD100200200C0200209368013B6B
:101EE000002B10B5936009DA9469A34202DBCBB2F0
:101EF0000A2B03D1BDE8104000F00ABB1368581C40
:101F000010601970C8B210BDF8B506460F461446E9
:101F1000D518AC4208D0304614F8011B3A46FFF7FA
:101F2000DDFF431CF5D100E00020F8BD2DE9F043B2
:101F30009DB00D4690460393064618B183690BB9D0
:101F4000FFF7EEFE754B9D4201D1756808E0744BBA
:101F50009D4201D1B56803E0724B9D4208BFF56810
:101F6000AB891C070AD52B6943B1002309932023B1
:101F70008DF8293030238DF82A3041E0304629464B
:101F800000F02CFB0028F0D04FF0FF30C2E0039AA5
:101F9000111D12680391002ABBBF524243F0020395
:101FA00007920792B8BF0493013423782E2B7BD07D
:101FB000DFF8808121784046032200F099FC38B197
:101FC000049AC8EB00004023834013430493013478
:101FD000217855488DF82810062204F1010800F0F8
:101FE00087FC002800F08580504B002B78D1039BA4
:101FF000073323F0070308330393099B3B440993FA
:1020000043461C4613F8012B1AB9B4EB08090ED04D
:1020100002E0252AF5D1F8E73046294642464B46EC
:10202000FFF772FF013070D0099B4B44099323786E
:10203000002B6AD000234FF0FF32049307930592E0
:1020400006938DF853301A9304F101084446DFF8E3
:10205000E89021784846052200F04AFC08F1010882
:10206000049B30B1C9EB000001228240134304936A
:10207000ECE7D80644BF20228DF85320190744BF4F
:102080002B228DF8532022782A2A80D007992346C4
:102090001C4601332278303A092A03D80A2000FB73
:1020A0000121F5E7079180E763782A2B0AD1039B8A
:1020B0001A1D1B680392002BB8BF4FF0FF33023488
:1020C000059375E7611C00220C4601312378303BF3
:1020D000092B03D80A2000FB0232F5E7059267E7D7
:1020E00003AB0093304604A92A46114BAFF300809E
:1020F00007E003AB0093304604A92A460C4B00F0DE
:1021000093F8421C07467FF478AFAB895B063FF536
:102110003BAF09981DB0BDE8F08300BF402B000025
:10212000602B0000802B0000AA2B000000000000A4
:10213000091F0000A62B0000A02B00002DE9F8438A
:1021400091461F468A680B69DDF820809342B8BF2C
:102150001346C9F8003091F8432006460C4612B1E8
:102160000133C9F800302368990642BFD9F800301E
:102170000233C9F80030256815F006051CD094F824
:1021800043302268003318BF012392061FD5E1189F
:102190005A1C302081F84300224494F8451082F8FC
:1021A0004310023313E03046394604F1190201238B
:1021B000C047013007D00135E368D9F800209B1AE9
:1021C0009D42F0DBDBE74FF0FF30BDE8F88330469F
:1021D000394604F14302C0470130F4D02268D9F8EF
:1021E0000050E36802F00602042A08BF5D1B226962
:1021F000A3680CBF25EAE57500259342C4BF9B1A6E
:10220000ED184FF00009A9450ADA3046394604F1C5
:102210001A020123C0470130D5D009F10109F2E7C4
:102220000020BDE8F88300002DE9FF410C46174669
:10223000227E6E2A984606460A9B01F1430100F071
:10224000AF8012D8632A23D00AD8002A00F0BC80BD
:10225000582A40F0CB8084F84520DFF804E257E0AC
:10226000642A1ED0692A1CD0C0E0732A00F0B08016
:1022700009D86F2A2ED0702A40F0B880226842F028
:10228000200222603FE0752A24D0782A3BD0ADE0BE
:102290001A68111D1960136884F8423004F1420570
:1022A000A8E020681A6810F0800F02D0101D186096
:1022B00008E010F0400F02F10400186002D0B2F9FB
:1022C000003000E01368002B3EDA2D225B4284F8D8
:1022D000432039E020681A6810F0800F02D0101DEA
:1022E000186007E010F0400F02F10400186001D000
:1022F000138800E01368227EDFF864E16F2A0CBFC8
:1023000008220A221CE07822DFF858E184F84520F0
:102310002268186812F0800F00F104051D6003D1D7
:10232000550601D5038800E00368D00744BF42F09A
:10233000200222601BB9226822F0200222601022B3
:10234000002084F8430002E0DFF814E10A22656807
:10235000A560002DA2BF206820F00400206003B912
:1023600065B10D46B3FBF2F002FB10331EF80330EB
:1023700005F8013D03460028F4D100E00D46082A87
:102380000BD12368DA0708D5236962689A42DEBF59
:10239000302305F8013C05F1FF35491B21612EE092
:1023A00025681A68606915F0800F03D0151D1D603F
:1023B000136808E015F0400F02F104051D60136872
:1023C00001D0188000E01860002323610D4616E05C
:1023D0001A68111D1960156862682846002100F00E
:1023E00087FA08B1401B6060636804E004F14205AD
:1023F00084F8422001232361002384F84330CDF880
:1024000000803046214603AA3B46FFF797FE013085
:1024100002D14FF0FF301FE0304639462A4623698B
:10242000C0470130F5D023689B0705D4E068039BC3
:102430009842B8BF18460FE00025E368039A9B1A3C
:102440009D42F3DA3046394604F119020123C047B0
:102450000130DED00135F0E704B0BDE8F08100BF07
:10246000B12B0000C22B000038B5064C00230546F6
:102470000846236000F0E4FA431C02D1236803B14C
:102480002B6038BD1802002010B50C46B1F90E10B3
:1024900000F082FA0028ABBF636DA3891B1823F4F8
:1024A0008053ACBF6365A38110BD2DE9F0411D468B
:1024B0008B89DB0507460C46164605D5B1F90E108B
:1024C0000022022300F0B4F9A389B4F90E1023F41A
:1024D0008053A381384632462B46BDE8F04100F0D8
:1024E0006BB810B50C46B1F90E1000F0A1F9431C01
:1024F000A38915BF606523F4805343F48053A381FF
:1025000018BFA38110BDB1F90E1000F0D3B80000C0
:1025100070B50D461446064618B183690BB9FFF72E
:10252000FFFB224B9C4201D1746808E0204B9C4287
:1025300001D1B46803E01F4B9C4208BFF468A36953
:10254000A360A3891A0709D523693BB123682069D1
:10255000181A63699842EDB20FDB08E03046214655
:1025600000F03CF80028F1D04FF0FF3070BD30464D
:10257000214600F033F90028F6D1A368013BA3609F
:1025800023685A1C22601D7063690130984204D090
:10259000A389DB0707D50A2D05D13046214600F077
:1025A0001DF90028E0D1284670BD00BF402B000077
:1025B000602B0000802B000038B5074C054600203A
:1025C0002060084611461A46FEF75EFA431C02D107
:1025D000236803B12B6038BD18020020314B70B561
:1025E0001D6806460C4625B1AB6913B92846FFF7AE
:1025F00097FB2D4B9C4201D16C6808E02B4B9C4211
:1026000001D1AC6803E02A4B9C4208BFEC68A38967
:102610009AB211071DD4D50602D40922326038E0DF
:10262000500712D5616B41B104F14403994202D0C5
:10263000304600F06DF900236363A38923F024037F
:10264000A3810023636023692360A38943F0080307
:10265000A38123694BB9A38903F42073B3F5007FE9
:1026600003D03046214600F0F5F8A38913F00102AB
:1026700005D00022A26062695242A26103E099077C
:1026800058BF6269A26022694AB903F0800080B233
:1026900030B143F04003A3814FF0FF3070BD002004
:1026A00070BD00BF60000020402B0000602B0000C8
:1026B000802B000038B5064C0023054608462360F1
:1026C00000F09EF9431C02D1236803B12B6038BD92
:1026D000180200208A892DE9F041054610070C46B2
:1026E00057D44B68002B02DC0B6C002B18DDE66A1C
:1026F000B6B102F48052002392B22F682B600AB167
:10270000626D10E0216A28460123B047411C024651
:1027100009D12B683BB11D2B01D0162B47D12F605F
:102720000020BDE8F081A3895B0705D56368D21A54
:10273000636B0BB1236CD21AE66A216A0023284628
:10274000B047461CA38905D12A681AB11D2A01D0B9
:10275000162A19D100226260D9042269226004D5A8
:10276000421C01D12B6803B96065616B2F600029A1
:10277000D6D004F14403994202D0284600F0C8F8AC
:1027800000206063BDE8F08143F04003A381BDE811
:10279000F0810F69002FC3D093070E6808BF4B6903
:1027A0000F6018BF0023C7EB06088B6012E0A389F7
:1027B00043F04003A3814FF0FF30BDE8F08128468D
:1027C000216AA66A3A464346B0470028EFDD07442F
:1027D000C0EB0808B8F1000FF1DCA1E738B50B69D0
:1027E00005460C46DBB118B183690BB9FFF798FABF
:1027F0000C4B9C4201D16C6808E00B4B9C4201D110
:10280000AC6803E0094B9C4208BFEC68B4F90C309B
:102810002BB128462146BDE83840FFF75BBF0020BA
:1028200038BD00BF402B0000602B0000802B000053
:1028300038B5074C054600202060084611461A4668
:1028400000F0F6F8431C02D1236803B12B6038BDB9
:1028500018020020F0B58B899D0791B006460C4602
:1028600026D4B1F90E10002909DAA38913F0800FDC
:102870004FF0000514BF40274FF480670DE001AA18
:1028800000F09CF80028F0DB029D05F47045A5F5EA
:1028900000514D424D414FF4806730463946FFF7B5
:1028A000C7FA60B9A3899A051DD443F00203A38136
:1028B00004F14703236023610123636113E00B4BA1
:1028C000B362A389206043F08003A3812061676124
:1028D0004DB13046B4F90E1000F082F818B1A3895A
:1028E00043F00103A38111B0F0BD00BFA11C0000A3
:1028F00010B5C9B202449042034606D01C788C42FF
:1029000000F10100F7D1184610BD002010BD0000F5
:1029100030B500293DD051F8042C0B1F1D49002A69
:10292000B8BF9B180A680C4612B95A600B6030BDDC
:1029300093420DD219685818904201BF5A58521844
:102940001A6042685A60236030BD994203D80A4633
:1029500051680029F9D1146815199D420AD11B68E4
:102960002344D0188842136013D1086803441360CD
:102970004B680DE002D90C23036030BD1C681819A8
:10298000884204BF08684968596004BF001918608C
:10299000536030BD1002002038B5074C05460020BA
:1029A0002060084611461A46FEF77CF8431C02D107
:1029B000236803B12B6038BD1802002038B5074CDE
:1029C0000023054608461146236000F021F8431C09
:1029D00002D1236803B12B6038BD00BF180200206C
:1029E00038B5064C002305460846236000F018F869
:1029F000431C02D1236803B12B6038BD18020020AC
:102A0000024B58221A604FF0FF3070471802002026
:102A1000024B58221A604FF0FF3070471802002016
:102A2000024B58221A600020704700BF1802002095
:102A3000024B58221A604FF0FF30704718020020F6
:102A4000044A05491368002B08BF0B461844106060
:102A5000184670471402002020020020F8B500BF7D
:102A6000F8BC08BC9E467047F8B500BFF8BC08BC6F
:102A70009E46704743000000000000201E0000003A
:102A80001900000000009801020000000806050A75
:102A90000000000000E0D70100300040000100000D
:102AA000310A00000A0D5457492073656E736F7226
:102AB000206578616D706C650D0A0000390A0D00A3
:102AC00031300A0D000000004572726F7220636F92
:102AD00064652069732025640A0D0000370A000030
:102AE00025630000B56206010300F00000FA0F0044
:102AF00006000000080000000A00000005000000B9
:102B000000000000000000000000D60106000000E8
:102B10001D000000190000000000980106000000E0
:102B200006000000080000000A0000000500000088
:102B300000000000000000000000D60106000000B8
:102B40000000000000000000000000000000000085
:102B50000000000000000000000000000000000075
:102B60000000000000000000000000000000000065
:102B70000000000000000000000000000000000055
:102B80000000000000000000000000000000000045
:102B90000000000000000000000000000000000035
:102BA000232D302B2000686C4C0065666745464736
:102BB00000303132333435363738394142434445B9
:102BC0004600303132333435363738396162636428
:082BD000656600000000000032
:082BD80084D8FF7F010000001A
:102BE00000000000402B0000602B0000802B000044
:102BF00000000000000000000000000000000000D5
:102C0000742A000000000000000000000000000026
:102C100000000000000000000000000000000000B4
:102C200000000000000000000000000000000000A4
:102C30000000000000000000000000000000000094
:102C4000000000200090D0030100000025040000D7
:082C5000010400000000000077
:0400000300001C35A8
:00000001FF
